:020000040800F2
:100000001004002001010008170B00086D03000810
:10001000150B00086D010008FB0C00080000000033
:10002000000000000000000000000000030C0008B9
:1000300077010008000000004B0B0008050C0008C9
:100040001B0100081B0100081B0100081B01000820
:100050001B0100081B0100081B0100081B01000810
:100060001B0100081B0100081B0100081B01000800
:100070006F01000871010008730100087501000894
:100080001B0100081B0100081B0100081B010008E0
:100090001B0100081B0100081B0100081B010008D0
:1000A0001B0100081B0100081B0100081B010008C0
:1000B0001B0100081B0100081B0100081B010008B0
:1000C0001B0100081B0100081B010008010C0008AF
:1000D0001B010008F90C00081B0100081B010008A7
:1000E0001B0100081B0100081B010008DFF80CD0F1
:1000F00000F02AF800480047890D0008100400208D
:100100000648804706480047FEE7FEE7FEE7FEE7B1
:10011000FEE7FEE7FEE7FEE7FEE7FEE7B10C0008BC
:10012000ED000008D2B201E000F8012B491EFBD21D
:1001300070470022F6E710B513460A4604461946F2
:10014000FFF7F0FF204610BD064C074D06E0E068C3
:1001500040F0010394E8070098471034AC42F6D30E
:10016000FFF7C8FFC00D0008E00D0008FEE770476C
:1001700070477047704770470248816802781144A1
:100180008160704700000020074810B5016841F009
:1001900010010160032000F095F8002000F006F83F
:1001A00000F024F8002010BD0020024070B50D4D75
:1001B00004464FF47A712878B1FBF0F00A490968D7
:1001C000B1FBF0F000F0BEF848B9102C07D20022C5
:1001D0002146501E00F026F800206C6070BD012002
:1001E00070BD0000000000200C0000200B4808B586
:1001F000816941F001018161816901F00101009192
:10020000C16941F08051C161C06900F08050009027
:100210000348416821F0E061416008BD00100240E0
:100220000000014070B515460C460646102A03D35F
:10023000AA2114A000F0A7FD102C03D3AB2111A01C
:1002400000F0A1FD1E480068C0F30223C3F10702BD
:100250002046042A00D90422191D072901D20023AF
:1002600000E0DB1E012404FA02F1491E014099401E
:100270009C40641E2C4021433046BDE8704000F095
:1002800063BD00002E2E2F447269766572732F5362
:10029000544D3332463178785F48414C5F4472693F
:1002A0007665722F5372632F73746D3332663178B3
:1002B000785F68616C5F636F727465782E630000AD
:1002C0000CED00E010B5044607280BD0062C09D031
:1002D000052C07D0042C05D0032C03D0922108A0B4
:1002E00000F051FD154904F0070208684FF6FF03BE
:1002F000184040EA0220124A1043086010BD000076
:100300002E2E2F447269766572732F53544D3332FB
:10031000463178785F48414C5F4472697665722F48
:100320005372632F73746D3332663178785F68610E
:100330006C5F636F727465782E6300000CED00E0F3
:100340000000FA0510B5401EB0F1807F01D30120F6
:1003500010BD4FF0E02460610F21601700F0F4FC45
:100360000020A06107202061002010BDFEE70000F2
:10037000044908B58A6902438A618969014000918C
:1003800008BD000000100240044908B58A69024314
:100390008A6189690140009108BD00000010024097
:1003A000044B194411F8011C435823F440531343E0
:1003B000435070479E0D0008054B10B5194411F8C5
:1003C000011C435844F21004A3431343435010BD8F
:1003D0009E0D0008044B194411F8011C435823F0EA
:1003E00080031343435070479E0D0008044B19448B
:1003F00011F8011C435823F44063134343507047E2
:100400009E0D0008044B194411F8011C435823F0B9
:1004100020031343435070479E0D0008044B1944BA
:1004200011F8011C435823F0400313434350704715
:100430009E0D0008044B194411F8011C435823F485
:1004400040731343435070479E0D00082DE9F04759
:10045000054662480C4685420FD0614885420CD063
:100460006048854209D06048854206D05F48854291
:1004700003D0A3215EA000F086FC206830F07B4111
:1004800002D010F07B4F03D0A42159A000F07BFCD8
:100490002068C0F30F2797FAA7F0B0FA80F697E02C
:1004A0000120B04038427DD0082E03D240F2011026
:1004B000B04006E0A6F108004FF00111814041F084
:1004C00080608146606858B1042809D0082807D0A8
:1004D000012805D0092803D0BD2145A000F053FC18
:1004E000206928B1012803D0BE2141A000F04BFCB7
:1004F000484699FAA9FC05EB1061BCFA8CFC4FEA5E
:100500008C084FF00F0C0CFA08FC99FAA9F06268FD
:100510000B68B0FA80F0800023EA0C03824013439A
:100520000B602069EA688A464FEA192191FAA1F125
:10053000B1FA81F122EA192288400243EA60606838
:10054000012801D0092842D1A068022807D001283B
:1005500005D0032803D0C92125A000F014FCE068D1
:1005600028B1042803D0CA2121A000F00CFC99FA7C
:10057000A9FCBCFA8CFC4FEA8C084FF0030C0CFA77
:1005800008FCDAF8003099FAA9F1A268B1FA81F111
:1005900023EA0C0389008A401343CAF8003099FA11
:1005A000A9FC00E013E0BCFA8CFC4FEA8C084FF089
:1005B000040C0CFA08FC99FAA9F0B0FA80F0E26891
:1005C000800023EA0C0382401343CAF80030761CF3
:1005D00037FA06F07FF464AFBDE8F0870008014009
:1005E000000C0140001001400014014000180140BF
:1005F0002E2E2F447269766572732F53544D333209
:10060000463178785F48414C5F4472697665722F55
:100610005372632F73746D3332663178785F6C6C0C
:100620005F6770696F2E63004FF47A71B0FBF1F170
:100630004FF0E020491E41610021816105210161E7
:10064000704700B5034600F0ABFA186000F07EFA80
:10065000586000F089FA9860586800F093FAD86002
:1006600000BD000001490860704700000C00002038
:100670002DE9FF47664F0126DFF89881DFF8989152
:100680000D460446B84207D0444505D04C4503D03A
:10069000D12162A000F077FB6F482968814203D91D
:1006A000D2215EA000F06FFB68684FF4805A28B139
:1006B000504503D0D32159A000F065FBA8685045F0
:1006C0000AD048B1B0F5405F06D0B0F5005F03D066
:1006D000D42152A000F057FBE86848B1B0F5806F14
:1006E00006D0B0F5C06F03D0D5214CA000F04BFB75
:1006F000286948B1042807D0082805D00C2803D061
:10070000D62146A000F03FFB686960B1B0F5807F5C
:1007100009D0B0F5007F06D0B0F5407F03D0D721D7
:100720003EA000F030FBE068C0F3403000286BD101
:10073000E9686868E2680843296941F20C639A43F2
:1007400011430843E060A868216921F44051014346
:1007500021616869616921F4407101436161684602
:10076000FFF76FFFBC4201D1039804E0444501D07C
:100770004C4549D10298002846D02968002943D029
:1007800000EBC00202EB00128800B2FBF0F3642120
:10079000B3FBF1F36FF018077B43B2FBF0F5B2FB4C
:1007A000F0F705EB8305322303EB0515B5FBF1F5F7
:1007B000B7FBF1F705F0F00505EB0715B2FBF0F715
:1007C000B2FBF0F0B0FBF1F000266FF018025043DE
:1007D00007EB800003EB0010B0FBF1F000F00F001E
:1007E000284480B2A060A068102804D240F23911D9
:1007F0000AA000F0C8FAA068B0F5803F04D34FF417
:100800009E7106A000F0BFFA04B03046BDE8F08744
:100810000038014000440040004800402E2E2F4484
:100820007269766572732F53544D3332463178783E
:100830005F48414C5F4472697665722F5372632F33
:1008400073746D3332663178785F6C6C5F75736189
:1008500072742E630000000020AA44001F4808B5EF
:10086000416941F001014161406900F001000090DF
:1008700000F052FA0022114600F04EF901460C2019
:1008800000F052FA0C2000F039FA00F045FA00228C
:10089000114600F041F901460D2000F045FA0D2007
:1008A00000F02CFA00F038FA0022114600F034F97A
:1008B00001460E2000F038FA0E2000F01FFA00F07A
:1008C0002BFA0022114600F027F901460F2000F014
:1008D0002BFABDE808400F2000F010BA00100240CB
:1008E0002DE9F04786B014216846FFF722FC10205E
:1008F000FFF73EFD2020FFF73BFD0420FFF738FD0A
:100900000820FFF735FD254EDFF88C904FF48070FE
:100910007061DFF88C80042540F2044AC8F8145056
:100920002048CDE90005204F69463846FFF78EFD87
:100930001E480024CDE9000469463846FFF786FDCD
:1009400040F20110CDE9000569463046FFF77EFD13
:100950001748CDE9000469463046FFF777FD154892
:10096000CDE9000469461448FFF770FD0125022710
:10097000CDE90274CDE9009569463046FFF766FD82
:10098000CDE90274CDE900A569464046FFF75EFD5A
:1009900006B0BDE8F0870000010001040008014036
:1009A000001401402101200400100140FFFE1F043B
:1009B0001E0E1804FFE7FF04000C014030B58DB097
:1009C0001C2105A8FFF7B5FB14216846FFF7B1FB12
:1009D0004FF48040FFF7D8FC0420FFF7D5FC4648D1
:1009E00000900920019003200024CDE90204434D2A
:1009F00069462846FFF72AFD4148009004200190EF
:100A000069462846FFF722FD3E4D00220521284673
:100A1000FFF7D2FC002205212846FFF7C1FC002287
:100A200005212846FFF7EEFC002205212846FFF7A6
:100A3000F5FC802205212846FFF7CCFC0022052189
:100A40002846FFF7F7FC002205212846FFF7CEFCD9
:100A5000102204212846FFF7AFFC0022042128467B
:100A6000FFF79EFC002204212846FFF7CBFC002262
:100A700004212846FFF7D2FC802204212846FFF7F4
:100A8000A9FC002204212846FFF7D4FC00220421FF
:100A90002846FFF7ABFC1C480068C0F30220011D8C
:100AA000072901D2002000E0C01E04FA00F108016D
:100AB000164981F80004154920202139C1F80001A8
:100AC0004FF4E130CDE905040C20CDE9084007944E
:100AD0000A940F4C05A92046FFF7CAFD206920F4AF
:100AE00090402061606920F02A006061E06840F475
:100AF0000050E0600DB030BD02000204000801406B
:100B000004000404000002400CED00E025E000E0D9
:100B100000380140FEE7704730B500F00703C3F12D
:100B20000704042C00D90424181D072801D200232F
:100B300000E0DB1E012505FA04F0401E0840984045
:100B40009D406D1E1540284330BD704704494968DB
:100B5000044A01F0F0010909515CC84070470000E7
:100B600000100240A50D000804494968044A01F438
:100B7000E06102EB11210978C84070470010024083
:100B8000B50D000804494968044A01F4605102EBBC
:100B9000D1210978C840704700100240B50D000807
:100BA0000648406810F00C01054805D0042903D020
:100BB000082901D100F006B870470000001002407B
:100BC00000127A000B48416811F480320A4909D0BA
:100BD000B2F5803F06D14168084AC1F34041491C43
:100BE000B2FBF1F14068022200F4701002EB904079
:100BF000484370470010024000093D0000127A008F
:100C000070477047FFF7B8BA264810B5016821F061
:100C1000070141F00201016000682348016841F4C6
:100C2000803101600168C1F340410029FAD00168B8
:100C300041F400210160416821F47C1141F4E81184
:100C40004160016841F0807101600168C1F3406159
:100C50000029FAD0416821F0F0014160416821F497
:100C6000E06141F480614160416821F4605141607C
:100C7000416821F0030141F002014160416801F047
:100C80000C010829FAD1094C2046FFF7CDFC4FF0A2
:100C9000E021086940F0040008612046BDE81040EA
:100CA000FFF7E0BC002002400010024000A24A040E
:100CB0000D48016841F00101016041680B4A114093
:100CC000416001680A4A11400160016821F48021F5
:100CD0000160416821F4FE0141604FF41F01816011
:100CE0000449C00308607047001002400000FFF88C
:100CF000FFFFF6FE08ED00E07047FEE7002809DB85
:100D000000F01F02012191404009800000F1E02025
:100D1000C0F800117047000002480068C0F30220CC
:100D2000704700000CED00E00907090E002804DB05
:100D300000F1E02080F80014704700F00F0000F18F
:100D4000E02080F8141D70470907090E002804DB15
:100D500000F1E02080F80014704700F00F0000F16F
:100D6000E02080F8141D704702E008C8121F08C177
:100D7000002AFAD170477047002001E001C1121F1C
:100D8000002AFBD170477047FFF7FEF9FFF73CFFE1
:100D9000FFF7A6FDFFF762FDFFF710FEFEE7081C58
:100DA0003044586C80000000000000000001020385
:100DB0000406070809000000000102030400000007
:100DC000E00D00080000002010000000680D000881
:100DD000F00D00081000002000040000780D00084D
:100DE0000100000010000000000000000024F400DA
:04000005080000ED02
:00000001FF
